:020000040000FA
:1000000010500020650000006D0000007500000029
:100010007D000000850000008D0000000000000051
:10002000000000000000000000000000950000003B
:100030009D00000000000000A5000000AD000000D1
:10004000B5000000BD000000C5000000DFF810D0C2
:1000500000F040F800480047F9040000AFF30080CA
:1000600010500020194880471948004700B500F09B
:1000700062F800BD00B500F051F800BD00B500F019
:1000800059F800BD00B500F037F800BD00B500F02C
:10009000AAF900BD00B500F044F900BD00B500F0BC
:1000A0002CF800BD00B500F009F900BD00B500F066
:1000B0007BF900BD00B500F094F900BD00B500F07B
:1000C00091F900BD00B500F08BF900BDAD03000053
:1000D000F9040000064C074D06E0E06840F001031B
:1000E00094E8070098471034AC42F6D3FFF7B2FF0C
:1000F000900F0000B00F0000704770474FF68370FC
:100100004FF0A04108617C204861002088614FF6D3
:10011000FF70C861002048607047000010B502A061
:1001200000F062F910BD0000486172644661756CB0
:1001300074210A00704770472DE9F05F80468946B8
:100140001446A8F1010000F0FF08A9F1010000F039
:10015000FF0908F00F0A4FEA281B302C09DB392C65
:1001600007DC394DA4F130004FF6FF7101EA0016AB
:1001700037E0412C09DB5A2C07DC334DA4F1370062
:100180004FF6FF7101EA00162BE0612C09DB7A2C97
:1001900007DC2D4DA4F13D004FF6FF7101EA00167A
:1001A0001FE0202C03D1284D4FF4787619E03A2C2B
:1001B00003D1254D4FF47C7613E02C2C03D1224D36
:1001C0004FF480660DE02E2C03D11F4D4FF4826654
:1001D00007E02D2C03D11C4D4FF4846601E01A4D2D
:1001E000002609F1B001C8B200F057FA0AF0FF008A
:1001F00000F053FA0BF11001C8B200F04EFA0027DC
:1002000005E0F119685C00F05EFA781CC7B2082FAF
:10021000F7DB09F1B101C8B200F03FFA0AF0FF00C4
:1002200000F03BFA0BF11001C8B200F036FA0827D3
:1002300005E0F119685C00F046FA781CC7B2102F8F
:10024000F7DBBDE8F09F00005E0B00002DE9F041F8
:1002500006460F461546002408E02A5D06EBC40159
:10026000C8B23946FFF768FF601CC4B2285D002899
:10027000F3D1BDE8F081000070B5002418E004F16E
:10028000B001C8B200F009FA002000F006FA102010
:1002900000F003FA002607E00749485D00F013FA72
:1002A000681C85B2701CC6B2802EF5DB601CC4B21F
:1002B000082CE4DB70BD00005E07000070474FF0C3
:1002C000A04040684FF6FE7108404FF0A0414860E2
:1002D00070474FF0A040406840F001004FF0A0414F
:1002E000486070474FF0A040006940F002004FF0B6
:1002F000A0410861084640684FF6FD7108404FF084
:10030000A041486070474FF0A040006940F00200F3
:100310004FF0A04108610846406840F00200486084
:100320007047704710B510A201210846FFF78EFFF5
:100330000FA203210120FFF789FF0FA20521012051
:10034000FFF784FF0EA207210120FFF77FFF0E4871
:100350000E494860001D88600D48C860C0010861F2
:100360000220486110BD00005443507374613A008C
:100370006B6579303A0000004B6579313A00000036
:100380004B6579323A0000000202A8C0001000401C
:100390000000901F0348006840F001000149086018
:1003A0007047000000100040704700001FB50A4869
:1003B0000A490860084600684FF4E131B0FBF1F4E7
:1003C00001200090019002900346024621460390CE
:1003D000800700F098F91FBD80F0FA0208000020A5
:1003E0007047704770477047014A024900F013B8E0
:1003F000710400000000002002E008C8121F08C1BC
:10040000002AFAD170477047002001E001C1121F95
:10041000002AFBD170472DE9F04116460F460446ED
:10042000002503E03946B047641C6D1C2078002885
:10043000F8D12846BDE8F081FF21FF220BE006E05D
:1004400001E0531EDAB2002AFBDC4B1ED9B20029B0
:10045000F6DC431ED8B20028F1DC704710B5044624
:1004600003E0FF20FFF7E8FF641E002CF9D110BD68
:1004700070B504460D460A2C03D10D21400700F04B
:1004800038F921464FF0804000F033F9204670BD26
:1004900030B503461A46FFF712FF002511E0144657
:1004A00004F08004802C02D1FFF72DFF01E0FFF75C
:1004B00019FF5006020EFFF70CFFFFF700FF681C44
:1004C000C5B2082DEBDB30BD00B5FFF702FFFFF72B
:1004D0001AFFFFF707FFFFF7F2FE00BD00B5FFF7B9
:1004E000F8FEFFF7FFFEFFF70EFF00BD00B5FFF7B8
:1004F000F0FEFFF7E4FE00BDFFF700FE00F074F829
:1005000000F058F8FFF7B8FE44F62060FFF7A6FFAA
:1005100000F050F820A203211920FFF797FE42F2C5
:100520001070FFF79BFF00F045F8FFF7FBFEFFF7A9
:1005300031FF0A20FFF792FF2CE04FF0A040006847
:1005400000F00800082805D116A205212920FFF790
:100550007DFE06E015A205212920FFF777FEFFF7B3
:1005600019FF4FF0A040006800F01000102805D1DE
:100570000CA207212920FFF769FE04E00BA2072146
:100580002920FFF763FE4FF0A040006840014FF0C4
:10059000A0414860D1E70000434943433236363238
:1005A000000000005570202000000000446F776EAE
:1005B0000000000070B5002413E004F1B001C8B2DF
:1005C00000F06BF8002000F068F8102000F065F8EB
:1005D000002503E0002000F076F86D1C802DF9D393
:1005E000641C082CE9D370BD10B5AE2000F055F89E
:1005F000002000F052F8102000F04FF8402000F0EA
:100600004CF8B02000F049F8812000F046F8FF20B7
:1006100000F043F8A12000F040F8A62000F03DF8DB
:10062000A82000F03AF83F2000F037F8C82000F08A
:1006300034F8D32000F031F8002000F02EF8D52057
:1006400000F02BF8802000F028F8D82000F025F8E2
:10065000052000F022F8D92000F01FF8F12000F06A
:100660001CF8DA2000F019F8122000F016F8DB2050
:1006700000F013F8302000F010F88D2000F00DF895
:10068000142000F00AF8AF2000F007F8C02000F0B6
:1006900004F8A02000F001F810BD10B50446FFF7E3
:1006A00013FF7820FFF7F4FEFFF720FF0020FFF78D
:1006B000EFFEFFF71BFF2046FFF7EAFEFFF716FFEE
:1006C000FFF70CFF10BD10B50446FFF7FDFE7820C4
:1006D000FFF7DEFEFFF70AFF4020FFF7D9FEFFF726
:1006E00005FF2046FFF7D4FEFFF700FFFFF7F6FEF9
:1006F00010BD04E0426802F0010202B900E0F9E72F
:1007000000BF016070472DE9F04104460D46DDE968
:1007100008C8DDE9066700210AB141F001010BB10B
:1007200041F002010EB141F004010FB141F00801A6
:10073000BCF1000F01D041F01001B8F1000F01D061
:1007400041F020010020A0602561A160606800F0F8
:100750000C0010B10120BDE8F0810020FBE7000093
:100760000000000000000000000000000000000089
:100770000000000000000000000000000000000079
:1007800000000000000000000000008080800000E9
:100790002020606070F0F8F8F8FCFCFCFEFEFEFE25
:1007A000FFFFFEFEFEFEFCFCFCF8F8F0F0F0E0E0DF
:1007B000E0C0C08080800000000000000000000059
:1007C0000000000000000000000000000000000029
:1007D0000000000000000000000000000000000019
:1007E0000000000000000000000000000000000009
:1007F0000000000000808080C0C0E0E0E0F0F0F089
:10080000F8F8F8FCFCFEFEFEFFFFFFFFFFFFFFFF16
:10081000FEFEFEFCFCFC787871313303038787878A
:100820008787870F1F3F3F3F7F7FFFFFFFFFFFFF50
:10083000FFFFFFFFFFFFFFFFFFFEFEFCFCFCF8F8E1
:10084000F8F0F0E0E0E040400000000000000000B0
:100850000000000000000000000000000000000098
:1008600000000000C0E0E0F0F0F0F8F8F8FCFCFE5A
:10087000FEFEFFFFFFFFFFFFFFFFFFFFFFFFFFFF8A
:100880007F7F3F3F1F0F0F0F0F0F0F07072363736C
:1008900071F1F9F8F8FCFCFCFEFEFEFFFFFFFFFF24
:1008A000FFFFFFFFFFFFFEFEFCFCFCF8F8F9F17113
:1008B00063632307070F0F0F0F0F8787C7E3E3F368
:1008C000F1F1F9F8F8FCFCFCFEFEFFFFFFFFFEFE75
:1008D000FEFCFCF8F8F8F0F0F060600000000000AA
:1008E00000000000FFFF00000001010103030707F3
:1008F000070F0F0F0F07072323737171F9F8F8FC27
:10090000FCFCFEFEFFFFFFFFFFFFFFFFFEFEFEFC05
:10091000FCFCF8F8F1F1F1E3E3E7C7C78F0F1F1F05
:100920001F1F0F0F0747E7E3E3F3F1F1F9F8F8FCB6
:10093000FCFEFEFEFFFFFFFFFFFFFFFFFFFFFFFFCD
:10094000FFFFFF7F7F7F3F3F3F1F1F1F0F0F0707E7
:100950000703030301010100000000000000000084
:100960000000E0E0FFFFF0E0C00000000000000039
:1009700000000000E0FCFCF8F8F0F0F0E0E0E1C17D
:10098000C183838307070F0F0F1F1F1F3F3F7F7F09
:100990007FFFFFFFFFFFFFFFFFFFFFFFFFFFFFFFE7
:1009A000FFFFFEFEFCFCFCF8F8F9F1F1F36367676A
:1009B000070F0F0F1F0F0F0F0707078383C3C1C157
:1009C000E0E0E0F0F0F8F8F8FCFCFEFEF0C000001B
:1009D0000000000000000000000000000000000017
:1009E0000000FFFFFFFFFFFFFF000000000000000E
:1009F0000000F8FFFFFFFFFFFFFFFFFFFFFFFFFF0C
:100A0000FFFFFFFFFFFFFEFEFEFCFCFCF8F8F0F02E
:100A1000F0E0E0E0C1C1C383830707070F0F0F0FAA
:100A20000F0F070707838381C1C1E0E0E0F0F0F01A
:100A3000F8F8F8FCFCFEFEFEFFFFFFFFFFFFFFFFE4
:100A4000FFFFFFFFFFFFFFFFFFFFFFFFFFFFFE4076
:100A50000000000000000000000000000000000096
:100A60000000030303030303030000000000000071
:100A70000000000000000000010101010103030368
:100A800003070707070F0F0F0F1F1F1F3F3F3F3FB2
:100A90007F7F7FFFFFFFFFFFFFFFFFFFFEFEFEFEEA
:100AA000FEFEFFFFFFFFFFFFFFFFFFFFFFFFFF7FD8
:100AB0007F7F3F3F3F1F1F1F0F0F0F0F07070707C6
:100AC0000303030303010101010000000000000013
:100AD0000000000000000000000000000000000016
:100AE0000000000000000000000000000000000006
:100AF00000000000000000000000000000000000F6
:100B000000000000000000000000000000000000E5
:100B10000000000000010101030307070F0F1F3F42
:100B20007F7F1F1F0F070703030301010000000061
:100B300000000000000000000000000000000000B5
:100B400000000000000000000000000000000000A5
:100B5000000000000000000000000000000000E0B5
:100B600010080810E000000F102020100F000000F7
:100B70001010F8000000000020203F20200000702E
:100B800008080808F0000030282422213000003036
:100B90000808088870000018202121221C0000008D
:100BA000804030F8000000060524243F242400F88B
:100BB0008888880808000019202020110E0000E015
:100BC000108888900000000F112020201F000018BE
:100BD0000808886818000000003E0100000000704E
:100BE000880808887000001C222121221C0000F0C7
:100BF00008080810E0000001122222110F00000076
:100C0000C038E0000000203C23020227382008F80A
:100C1000888888700000203F202020110E00C030FE
:100C2000080808083800071820202010080008F8D5
:100C300008080810E000203F202020100F0008F8CE
:100C40008888E8081000203F20202320180008F89A
:100C50008888E8081000203F200003000000C03012
:100C600008080838000007182020221E020008F893
:100C700008000008F808203F210101213F2000085A
:100C800008F8080800000020203F20200000000095
:100C90000808F8080800C08080807F00000008F87D
:100CA00088C028180800203F20012638200008F8B6
:100CB000080000000000203F20202020300008F81D
:100CC000F800F8F80800203F013E013F200008F836
:100CD00030C00008F808203F200007183F00E0104F
:100CE00008080810E0000F10202020100F0008F85E
:100CF00008080808F000203F210101010000E01071
:100D000008080810E0000F10282830504F0008F89D
:100D1000888888887000203F2000030C30200070F5
:100D20008808080838000038202121221C001808F3
:100D300008F8080818000000203F2000000008F80C
:100D400008000008F808001F202020201F00087855
:100D5000880000C83808000007380E01000008F8B5
:100D600000F800F8080000033E013E0300000818E8
:100D700068808068180820302C03032C3020083845
:100D8000C800C83808000000203F200000001008FC
:100D90000808C83808002038262120201800000044
:100DA00080808000000000192424123F200010F0F1
:100DB000008080000000003F112020110E00000084
:100DC000008080800000000E112020201100000013
:100DD00080808090F000001F202020103F20000025
:100DE000808080800000001F2424242417000080BD
:100DF00080E0909020000020203F20200000000094
:100E0000808080808000006B94949493600010F048
:100E1000008080800000203F210000203F200080D3
:100E20009898000000000020203F202000000000D3
:100E300000809898000000C08080807F000010F043
:100E4000000080808000203F240629302000001010
:100E500010F8000000000020203F202000008080CB
:100E6000808080808000203F20003F20003F8080E5
:100E7000008080800000203F210000203F200000F3
:100E8000808080800000001F202020201F008080A4
:100E900000808000000080FF912020110E000000E3
:100EA000008080008000000E11202091FF80808053
:100EB00080008080800020203F2120000100000071
:100EC0008080808080000033242424241900008046
:100ED00080E0808000000000001F20201000808043
:100EE000000000808000001F202020103F20808014
:100EF00080008080800000030C300C0300008080A4
:100F0000008080008080010E300C073806010080D0
:100F10008080008080000020310E2E3120008080F3
:100F200080000080808000818678180601000080A3
:100F30008080808080000021302C22213000000041
:100F400000000000000000000000000000000000A1
:100F500000C0C000000000000030300000000000B1
:100F60000000000000000090700000000000000081
:100F70000000000000000030300000000000000011
:100F8000000000000000000101010101010000005B
:100F9000B00F0000000000200C000000F80300006B
:100FA000BC0F00000C0000200450000008040000EA
:0C0FB000000000000000000080F0FA02C9
:040000050000004DAA
:00000001FF
